{
  "contractName": "BlockPrint",
  "abi": [
    {
      "anonymous": false,
      "inputs": [
        {
          "indexed": false,
          "internalType": "uint256",
          "name": "tokenID",
          "type": "uint256"
        },
        {
          "indexed": false,
          "internalType": "string",
          "name": "tokenURL",
          "type": "string"
        }
      ],
      "name": "CertificateCreated",
      "type": "event"
    },
    {
      "anonymous": false,
      "inputs": [
        {
          "indexed": true,
          "internalType": "address",
          "name": "oldOwner",
          "type": "address"
        },
        {
          "indexed": true,
          "internalType": "address",
          "name": "newOwner",
          "type": "address"
        }
      ],
      "name": "OwnerSet",
      "type": "event"
    },
    {
      "inputs": [
        {
          "internalType": "address",
          "name": "newOwner",
          "type": "address"
        }
      ],
      "name": "changeOwner",
      "outputs": [],
      "stateMutability": "nonpayable",
      "type": "function"
    },
    {
      "inputs": [],
      "name": "getOwner",
      "outputs": [
        {
          "internalType": "address",
          "name": "",
          "type": "address"
        }
      ],
      "stateMutability": "view",
      "type": "function",
      "constant": true
    },
    {
      "inputs": [
        {
          "internalType": "string",
          "name": "_tokenURL",
          "type": "string"
        }
      ],
      "name": "mintCertificate",
      "outputs": [
        {
          "internalType": "uint256",
          "name": "certificateId",
          "type": "uint256"
        }
      ],
      "stateMutability": "nonpayable",
      "type": "function"
    },
    {
      "inputs": [
        {
          "internalType": "uint256",
          "name": "certificateId",
          "type": "uint256"
        }
      ],
      "name": "fetchCertificate",
      "outputs": [
        {
          "internalType": "string",
          "name": "tokenURL",
          "type": "string"
        }
      ],
      "stateMutability": "view",
      "type": "function",
      "constant": true
    }
  ],
  "bytecode": "0x608060405234801561001057600080fd5b50336000806101000a81548173ffffffffffffffffffffffffffffffffffffffff021916908373ffffffffffffffffffffffffffffffffffffffff16021790555060008054906101000a900473ffffffffffffffffffffffffffffffffffffffff1673ffffffffffffffffffffffffffffffffffffffff16600073ffffffffffffffffffffffffffffffffffffffff167f342827c97908e5e2f71151c08502a66d44b6f758e3ac2f1de95f02eb95f0a73560405160405180910390a3610af6806100db6000396000f3fe608060405234801561001057600080fd5b506004361061004c5760003560e01c806301ac022614610051578063893d20e814610081578063a6f9dae11461009f578063e3a88109146100bb575b600080fd5b61006b60048036038101906100669190610677565b6100eb565b60405161007891906107a0565b60405180910390f35b610089610190565b6040516100969190610785565b60405180910390f35b6100b960048036038101906100b4919061060d565b6101b9565b005b6100d560048036038101906100d09190610636565b610304565b6040516100e29190610802565b60405180910390f35b606060036000838152602001908152602001600020805461010b90610948565b80601f016020809104026020016040519081016040528092919081815260200182805461013790610948565b80156101845780601f1061015957610100808354040283529160200191610184565b820191906000526020600020905b81548152906001019060200180831161016757829003601f168201915b50505050509050919050565b60008060009054906101000a900473ffffffffffffffffffffffffffffffffffffffff16905090565b60008054906101000a900473ffffffffffffffffffffffffffffffffffffffff1673ffffffffffffffffffffffffffffffffffffffff163373ffffffffffffffffffffffffffffffffffffffff1614610247576040517f08c379a000000000000000000000000000000000000000000000000000000000815260040161023e906107c2565b60405180910390fd5b8073ffffffffffffffffffffffffffffffffffffffff1660008054906101000a900473ffffffffffffffffffffffffffffffffffffffff1673ffffffffffffffffffffffffffffffffffffffff167f342827c97908e5e2f71151c08502a66d44b6f758e3ac2f1de95f02eb95f0a73560405160405180910390a3806000806101000a81548173ffffffffffffffffffffffffffffffffffffffff021916908373ffffffffffffffffffffffffffffffffffffffff16021790555050565b60008060009054906101000a900473ffffffffffffffffffffffffffffffffffffffff1673ffffffffffffffffffffffffffffffffffffffff163373ffffffffffffffffffffffffffffffffffffffff1614610395576040517f08c379a000000000000000000000000000000000000000000000000000000000815260040161038c906107c2565b60405180910390fd5b6002826040516103a5919061076e565b908152602001604051809103902060009054906101000a900460ff1615610401576040517f08c379a00000000000000000000000000000000000000000000000000000000081526004016103f8906107e2565b60405180910390fd5b61040b60016104b4565b9050816003600083815260200190815260200160002090805190602001906104349291906104d8565b506001600283604051610447919061076e565b908152602001604051809103902060006101000a81548160ff0219169083151502179055507f6bfbe1b361bd87808c4c58733955f81c593d11950aff897e6968ab160b6ffa5f818360405161049d92919061081d565b60405180910390a16104af60016104c2565b919050565b600081600001549050919050565b6001816000016000828254019250508190555050565b8280546104e490610948565b90600052602060002090601f016020900481019282610506576000855561054d565b82601f1061051f57805160ff191683800117855561054d565b8280016001018555821561054d579182015b8281111561054c578251825591602001919060010190610531565b5b50905061055a919061055e565b5090565b5b8082111561057757600081600090555060010161055f565b5090565b600061058e61058984610872565b61084d565b9050828152602081018484840111156105a657600080fd5b6105b1848285610906565b509392505050565b6000813590506105c881610a92565b92915050565b600082601f8301126105df57600080fd5b81356105ef84826020860161057b565b91505092915050565b60008135905061060781610aa9565b92915050565b60006020828403121561061f57600080fd5b600061062d848285016105b9565b91505092915050565b60006020828403121561064857600080fd5b600082013567ffffffffffffffff81111561066257600080fd5b61066e848285016105ce565b91505092915050565b60006020828403121561068957600080fd5b6000610697848285016105f8565b91505092915050565b6106a9816108ca565b82525050565b60006106ba826108a3565b6106c481856108ae565b93506106d4818560208601610915565b6106dd81610a09565b840191505092915050565b60006106f3826108a3565b6106fd81856108bf565b935061070d818560208601610915565b80840191505092915050565b60006107266013836108ae565b915061073182610a1a565b602082019050919050565b60006107496021836108ae565b915061075482610a43565b604082019050919050565b610768816108fc565b82525050565b600061077a82846106e8565b915081905092915050565b600060208201905061079a60008301846106a0565b92915050565b600060208201905081810360008301526107ba81846106af565b905092915050565b600060208201905081810360008301526107db81610719565b9050919050565b600060208201905081810360008301526107fb8161073c565b9050919050565b6000602082019050610817600083018461075f565b92915050565b6000604082019050610832600083018561075f565b818103602083015261084481846106af565b90509392505050565b6000610857610868565b9050610863828261097a565b919050565b6000604051905090565b600067ffffffffffffffff82111561088d5761088c6109da565b5b61089682610a09565b9050602081019050919050565b600081519050919050565b600082825260208201905092915050565b600081905092915050565b60006108d5826108dc565b9050919050565b600073ffffffffffffffffffffffffffffffffffffffff82169050919050565b6000819050919050565b82818337600083830152505050565b60005b83811015610933578082015181840152602081019050610918565b83811115610942576000848401525b50505050565b6000600282049050600182168061096057607f821691505b60208210811415610974576109736109ab565b5b50919050565b61098382610a09565b810181811067ffffffffffffffff821117156109a2576109a16109da565b5b80604052505050565b7f4e487b7100000000000000000000000000000000000000000000000000000000600052602260045260246000fd5b7f4e487b7100000000000000000000000000000000000000000000000000000000600052604160045260246000fd5b6000601f19601f8301169050919050565b7f43616c6c6572206973206e6f74206f776e657200000000000000000000000000600082015250565b7f54686520436572746966696361746520697320616c72656164792073746f726560008201527f6400000000000000000000000000000000000000000000000000000000000000602082015250565b610a9b816108ca565b8114610aa657600080fd5b50565b610ab2816108fc565b8114610abd57600080fd5b5056fea26469706673582212207638e62961fee70cc88d04a87394909463206ac2aa9bb596d954ec086e59a9c964736f6c63430008020033",
  "immutableReferences": {},
  "source": "// SPDX-License-Identifier: MIT\npragma solidity ^0.8.2;\n\nimport \"./Owner.sol\";\nimport \"@openzeppelin/contracts/utils/Counters.sol\";\n\ncontract BlockPrint is Owner {\n    using Counters for Counters.Counter;\n\n    Counters.Counter tokenID;\n    mapping(string => bool) private _doesCertificateExist;\n    mapping(uint256 => string) private _idToURL;\n\n    event CertificateCreated(uint256 tokenID, string tokenURL);\n\n    function mintCertificate(string memory _tokenURL)\n        public\n        isOwner\n        returns (uint256 certificateId)\n    {\n        require(\n            !_doesCertificateExist[_tokenURL],\n            \"The Certificate is already stored\"\n        );\n        certificateId = tokenID.current();\n        _idToURL[certificateId] = _tokenURL;\n        _doesCertificateExist[_tokenURL] = true;\n        emit CertificateCreated(certificateId, _tokenURL);\n        tokenID.increment();\n    }\n\n    function fetchCertificate(uint256 certificateId)\n        public\n        view\n        returns (string memory tokenURL)\n    {\n        tokenURL = _idToURL[certificateId];\n    }\n}\n",
  "sourcePath": "/home/ashish/projects/blockPrint/contracts/BlockPrint.sol",
  "compiler": {
    "name": "solc",
    "version": "0.8.2+commit.661d1103.Emscripten.clang"
  },
  "schemaVersion": "3.4.4",
  "updatedAt": "2022-01-10T16:28:02.440Z",
  "networkType": "ethereum",
  "devdoc": {
    "kind": "dev",
    "methods": {
      "changeOwner(address)": {
        "details": "Change owner",
        "params": {
          "newOwner": "address of new owner"
        }
      },
      "getOwner()": {
        "details": "Return owner address",
        "returns": {
          "_0": "address of owner"
        }
      }
    },
    "version": 1
  },
  "userdoc": {
    "kind": "user",
    "methods": {},
    "version": 1
  }
}